{
  "contractName": "AaveDeposit",
  "abi": [
    {
      "inputs": [
        {
          "internalType": "address",
          "name": "_provider",
          "type": "address"
        }
      ],
      "stateMutability": "nonpayable",
      "type": "constructor"
    },
    {
      "inputs": [],
      "name": "depositToAave",
      "outputs": [],
      "stateMutability": "payable",
      "type": "function"
    },
    {
      "inputs": [
        {
          "internalType": "uint256",
          "name": "amt",
          "type": "uint256"
        }
      ],
      "name": "withdrawFromAave",
      "outputs": [
        {
          "internalType": "uint256",
          "name": "",
          "type": "uint256"
        }
      ],
      "stateMutability": "nonpayable",
      "type": "function"
    }
  ],
  "bytecode": "0x6080604052736b175474e89094c44da98b954eedeac495271d0f600160006101000a81548173ffffffffffffffffffffffffffffffffffffffff021916908373ffffffffffffffffffffffffffffffffffffffff16021790555034801561006557600080fd5b506040516109153803806109158339818101604052602081101561008857600080fd5b8101908080519060200190929190505050336000806101000a81548173ffffffffffffffffffffffffffffffffffffffff021916908373ffffffffffffffffffffffffffffffffffffffff16021790555080600560006101000a81548173ffffffffffffffffffffffffffffffffffffffff021916908373ffffffffffffffffffffffffffffffffffffffff160217905550506107eb8061012a6000396000f3fe608060405260043610610046576000357c01000000000000000000000000000000000000000000000000000000009004806306197c1c1461004b578063688f237b14610055575b600080fd5b6100536100a4565b005b34801561006157600080fd5b5061008e6004803603602081101561007857600080fd5b810190808035906020019092919050505061048d565b6040518082815260200191505060405180910390f35b6000341161011a576040517f08c379a000000000000000000000000000000000000000000000000000000000815260040180806020018281038252601d8152602001807f4465706f736974696e6720616d6f756e742063616e6e6f74206265203000000081525060200191505060405180910390fd5b600560009054906101000a900473ffffffffffffffffffffffffffffffffffffffff1673ffffffffffffffffffffffffffffffffffffffff16630261bf8b6040518163ffffffff167c010000000000000000000000000000000000000000000000000000000002815260040160206040518083038186803b15801561019e57600080fd5b505afa1580156101b2573d6000803e3d6000fd5b505050506040513d60208110156101c857600080fd5b8101908080519060200190929190505050600660006101000a81548173ffffffffffffffffffffffffffffffffffffffff021916908373ffffffffffffffffffffffffffffffffffffffff160217905550600660009054906101000a900473ffffffffffffffffffffffffffffffffffffffff1673ffffffffffffffffffffffffffffffffffffffff1663e8eda9df600160009054906101000a900473ffffffffffffffffffffffffffffffffffffffff16343060006040518563ffffffff167c0100000000000000000000000000000000000000000000000000000000028152600401808573ffffffffffffffffffffffffffffffffffffffff1681526020018481526020018373ffffffffffffffffffffffffffffffffffffffff168152602001828152602001945050505050600060405180830381600087803b15801561031157600080fd5b505af1158015610325573d6000803e3d6000fd5b5050505034600360003373ffffffffffffffffffffffffffffffffffffffff1673ffffffffffffffffffffffffffffffffffffffff1681526020019081526020016000206000828254019250508190555060001515600260003373ffffffffffffffffffffffffffffffffffffffff1673ffffffffffffffffffffffffffffffffffffffff16815260200190815260200160002060009054906101000a900460ff161515141561048b576001600260003373ffffffffffffffffffffffffffffffffffffffff1673ffffffffffffffffffffffffffffffffffffffff16815260200190815260200160002060006101000a81548160ff0219169083151502179055506004339080600181540180825580915050600190039060005260206000200160009091909190916101000a81548173ffffffffffffffffffffffffffffffffffffffff021916908373ffffffffffffffffffffffffffffffffffffffff1602179055505b565b600080339050600560009054906101000a900473ffffffffffffffffffffffffffffffffffffffff1673ffffffffffffffffffffffffffffffffffffffff16630261bf8b6040518163ffffffff167c010000000000000000000000000000000000000000000000000000000002815260040160206040518083038186803b15801561051757600080fd5b505afa15801561052b573d6000803e3d6000fd5b505050506040513d602081101561054157600080fd5b8101908080519060200190929190505050600660006101000a81548173ffffffffffffffffffffffffffffffffffffffff021916908373ffffffffffffffffffffffffffffffffffffffff1602179055506000600660009054906101000a900473ffffffffffffffffffffffffffffffffffffffff1673ffffffffffffffffffffffffffffffffffffffff166369328dec600160009054906101000a900473ffffffffffffffffffffffffffffffffffffffff1686856040518463ffffffff167c0100000000000000000000000000000000000000000000000000000000028152600401808473ffffffffffffffffffffffffffffffffffffffff1681526020018381526020018273ffffffffffffffffffffffffffffffffffffffff1681526020019350505050602060405180830381600087803b15801561068357600080fd5b505af1158015610697573d6000803e3d6000fd5b505050506040513d60208110156106ad57600080fd5b8101908080519060200190929190505050905080600360008473ffffffffffffffffffffffffffffffffffffffff1673ffffffffffffffffffffffffffffffffffffffff168152602001908152602001600020600082825403925050819055506000600360008473ffffffffffffffffffffffffffffffffffffffff1673ffffffffffffffffffffffffffffffffffffffff1681526020019081526020016000205410156107ae576000600260008473ffffffffffffffffffffffffffffffffffffffff1673ffffffffffffffffffffffffffffffffffffffff16815260200190815260200160002060006101000a81548160ff0219169083151502179055505b505091905056fea2646970667358221220f6f42eac2ff8c0ddb23bb78957c709bb6b9217fe1b5d34c78db769f5b240724864736f6c634300060c0033",
  "immutableReferences": {},
  "source": "// SPDX-License-Identifier: UNLICENSED\r\npragma solidity ^0.6.12;\r\n\r\nimport {ILendingPool} from \"./AaveInterfaces/ILendingPool.sol\";\r\nimport {ILendingPoolAddressesProvider} from \"./AaveInterfaces/ILendingPoolAddressesProvider.sol\";\r\nimport {IERC20} from \"./IERC20.sol\";\r\n\r\ncontract AaveDeposit{\r\n  address owner;  // Owner of this contract\r\n  address dai=address(0x6B175474E89094C44Da98b954EedeAC495271d0F);\r\n\r\n  mapping(address=>bool) isDepositing;//  When the client has deposited any amount: DEFAULT=0\r\n  mapping(address=>uint) amtDeposited;//  The amount client has deposited: DEFAULT= false\r\n\r\n  address[] depositers;// Record of all the depositers\r\n\r\n  ILendingPoolAddressesProvider provider;\r\n  ILendingPool pool;\r\n\r\n  modifier onlyOwner{\r\n    require(msg.sender==owner, \"Only owner can call\");\r\n    _;\r\n  }\r\n\r\n  constructor(address _provider) public{\r\n    owner= msg.sender;\r\n    provider= ILendingPoolAddressesProvider(_provider);\r\n  }\r\n  \r\n  function depositToAave() public payable{\r\n    require(msg.value>0,\"Depositing amount cannot be 0\");\r\n    pool= ILendingPool(provider.getLendingPool());\r\n    pool.deposit(dai,msg.value, address(this), 0);\r\n    // recording\r\n    amtDeposited[msg.sender]+= msg.value; // amtDeposited is the total deposited amount i.e., the balance\r\n    if(isDepositing[msg.sender]==false){\r\n      isDepositing[msg.sender]=true;\r\n      depositers.push(msg.sender);\r\n    }\r\n  }//depositToAave\r\n  \r\n  function withdrawFromAave(uint amt) public returns (uint){\r\n    address caller= msg.sender;\r\n    pool= ILendingPool(provider.getLendingPool());\r\n    uint drawn= pool.withdraw(dai, amt, caller);\r\n\r\n    // Update record\r\n    amtDeposited[caller]-= drawn;\r\n    if(amtDeposited[caller]<0){\r\n      isDepositing[caller]=false;\r\n    }//if\r\n  }// withdrawFromAave\r\n}// Contract",
  "sourcePath": "D:/Solidity Projects/Aave-project/src/contracts/MyContract.sol",
  "compiler": {
    "name": "solc",
    "version": "0.6.12+commit.27d51765.Emscripten.clang"
  },
  "schemaVersion": "3.4.1",
  "updatedAt": "2021-07-05T09:08:00.206Z",
  "devdoc": {
    "kind": "dev",
    "methods": {},
    "version": 1
  },
  "userdoc": {
    "kind": "user",
    "methods": {},
    "version": 1
  }
}